{
  "_format": "hh-sol-artifact-1",
  "contractName": "ERC721",
  "sourceName": "contracts/ERC721.sol",
  "abi": [
    {
      "inputs": [
        {
          "internalType": "string",
          "name": "name_",
          "type": "string"
        },
        {
          "internalType": "string",
          "name": "symbol_",
          "type": "string"
        }
      ],
      "stateMutability": "nonpayable",
      "type": "constructor"
    },
    {
      "anonymous": false,
      "inputs": [
        {
          "indexed": false,
          "internalType": "address",
          "name": "from",
          "type": "address"
        },
        {
          "indexed": false,
          "internalType": "address",
          "name": "to",
          "type": "address"
        },
        {
          "indexed": false,
          "internalType": "uint256",
          "name": "tokenId",
          "type": "uint256"
        }
      ],
      "name": "Approval",
      "type": "event"
    },
    {
      "anonymous": false,
      "inputs": [
        {
          "indexed": false,
          "internalType": "address",
          "name": "from",
          "type": "address"
        },
        {
          "indexed": false,
          "internalType": "address",
          "name": "operator",
          "type": "address"
        },
        {
          "indexed": false,
          "internalType": "bool",
          "name": "approval",
          "type": "bool"
        }
      ],
      "name": "Approvalforall",
      "type": "event"
    },
    {
      "anonymous": false,
      "inputs": [
        {
          "indexed": false,
          "internalType": "address",
          "name": "from",
          "type": "address"
        },
        {
          "indexed": false,
          "internalType": "address",
          "name": "to",
          "type": "address"
        },
        {
          "indexed": false,
          "internalType": "uint256",
          "name": "tokenId",
          "type": "uint256"
        }
      ],
      "name": "Transfer",
      "type": "event"
    },
    {
      "inputs": [
        {
          "internalType": "address",
          "name": "to",
          "type": "address"
        },
        {
          "internalType": "uint256",
          "name": "tokenId",
          "type": "uint256"
        }
      ],
      "name": "approve",
      "outputs": [],
      "stateMutability": "nonpayable",
      "type": "function"
    },
    {
      "inputs": [
        {
          "internalType": "address",
          "name": "owner",
          "type": "address"
        }
      ],
      "name": "balanceOf",
      "outputs": [
        {
          "internalType": "uint256",
          "name": "",
          "type": "uint256"
        }
      ],
      "stateMutability": "view",
      "type": "function"
    },
    {
      "inputs": [
        {
          "internalType": "uint256",
          "name": "tokenId",
          "type": "uint256"
        }
      ],
      "name": "burn",
      "outputs": [],
      "stateMutability": "nonpayable",
      "type": "function"
    },
    {
      "inputs": [
        {
          "internalType": "uint256",
          "name": "tokenId",
          "type": "uint256"
        }
      ],
      "name": "getApproved",
      "outputs": [
        {
          "internalType": "address",
          "name": "",
          "type": "address"
        }
      ],
      "stateMutability": "view",
      "type": "function"
    },
    {
      "inputs": [
        {
          "internalType": "address",
          "name": "owner",
          "type": "address"
        },
        {
          "internalType": "address",
          "name": "operator",
          "type": "address"
        }
      ],
      "name": "isApprovedForAll",
      "outputs": [
        {
          "internalType": "bool",
          "name": "",
          "type": "bool"
        }
      ],
      "stateMutability": "view",
      "type": "function"
    },
    {
      "inputs": [
        {
          "internalType": "address",
          "name": "to",
          "type": "address"
        },
        {
          "internalType": "uint256",
          "name": "tokenId",
          "type": "uint256"
        },
        {
          "internalType": "string",
          "name": "url",
          "type": "string"
        }
      ],
      "name": "mint",
      "outputs": [],
      "stateMutability": "nonpayable",
      "type": "function"
    },
    {
      "inputs": [],
      "name": "name",
      "outputs": [
        {
          "internalType": "string",
          "name": "",
          "type": "string"
        }
      ],
      "stateMutability": "view",
      "type": "function"
    },
    {
      "inputs": [
        {
          "internalType": "uint256",
          "name": "tokenId",
          "type": "uint256"
        }
      ],
      "name": "ownerOf",
      "outputs": [
        {
          "internalType": "address",
          "name": "",
          "type": "address"
        }
      ],
      "stateMutability": "view",
      "type": "function"
    },
    {
      "inputs": [
        {
          "internalType": "address",
          "name": "owner",
          "type": "address"
        },
        {
          "internalType": "address",
          "name": "operator",
          "type": "address"
        },
        {
          "internalType": "bool",
          "name": "approved",
          "type": "bool"
        }
      ],
      "name": "setApprovalForAll",
      "outputs": [],
      "stateMutability": "nonpayable",
      "type": "function"
    },
    {
      "inputs": [],
      "name": "symbol",
      "outputs": [
        {
          "internalType": "string",
          "name": "",
          "type": "string"
        }
      ],
      "stateMutability": "view",
      "type": "function"
    },
    {
      "inputs": [
        {
          "internalType": "uint256",
          "name": "tokenId",
          "type": "uint256"
        }
      ],
      "name": "tokenURI",
      "outputs": [
        {
          "internalType": "string",
          "name": "",
          "type": "string"
        }
      ],
      "stateMutability": "view",
      "type": "function"
    },
    {
      "inputs": [
        {
          "internalType": "address",
          "name": "to",
          "type": "address"
        },
        {
          "internalType": "uint256",
          "name": "tokenId",
          "type": "uint256"
        }
      ],
      "name": "transfer",
      "outputs": [],
      "stateMutability": "nonpayable",
      "type": "function"
    },
    {
      "inputs": [
        {
          "internalType": "address",
          "name": "from",
          "type": "address"
        },
        {
          "internalType": "address",
          "name": "to",
          "type": "address"
        },
        {
          "internalType": "uint256",
          "name": "tokenId",
          "type": "uint256"
        }
      ],
      "name": "transferFrom",
      "outputs": [],
      "stateMutability": "nonpayable",
      "type": "function"
    }
  ],
  "bytecode": "0x60806040523480156200001157600080fd5b5060405162001f3538038062001f358339818101604052810190620000379190620001f6565b8160009081620000489190620004c6565b5080600190816200005a9190620004c6565b505050620005ad565b6000604051905090565b600080fd5b600080fd5b600080fd5b600080fd5b6000601f19601f8301169050919050565b7f4e487b7100000000000000000000000000000000000000000000000000000000600052604160045260246000fd5b620000cc8262000081565b810181811067ffffffffffffffff82111715620000ee57620000ed62000092565b5b80604052505050565b60006200010362000063565b9050620001118282620000c1565b919050565b600067ffffffffffffffff82111562000134576200013362000092565b5b6200013f8262000081565b9050602081019050919050565b60005b838110156200016c5780820151818401526020810190506200014f565b60008484015250505050565b60006200018f620001898462000116565b620000f7565b905082815260208101848484011115620001ae57620001ad6200007c565b5b620001bb8482856200014c565b509392505050565b600082601f830112620001db57620001da62000077565b5b8151620001ed84826020860162000178565b91505092915050565b6000806040838503121562000210576200020f6200006d565b5b600083015167ffffffffffffffff81111562000231576200023062000072565b5b6200023f85828601620001c3565b925050602083015167ffffffffffffffff81111562000263576200026262000072565b5b6200027185828601620001c3565b9150509250929050565b600081519050919050565b7f4e487b7100000000000000000000000000000000000000000000000000000000600052602260045260246000fd5b60006002820490506001821680620002ce57607f821691505b602082108103620002e457620002e362000286565b5b50919050565b60008190508160005260206000209050919050565b60006020601f8301049050919050565b600082821b905092915050565b6000600883026200034e7fffffffffffffffffffffffffffffffffffffffffffffffffffffffffffffffff826200030f565b6200035a86836200030f565b95508019841693508086168417925050509392505050565b6000819050919050565b6000819050919050565b6000620003a7620003a16200039b8462000372565b6200037c565b62000372565b9050919050565b6000819050919050565b620003c38362000386565b620003db620003d282620003ae565b8484546200031c565b825550505050565b600090565b620003f2620003e3565b620003ff818484620003b8565b505050565b5b8181101562000427576200041b600082620003e8565b60018101905062000405565b5050565b601f82111562000476576200044081620002ea565b6200044b84620002ff565b810160208510156200045b578190505b620004736200046a85620002ff565b83018262000404565b50505b505050565b600082821c905092915050565b60006200049b600019846008026200047b565b1980831691505092915050565b6000620004b6838362000488565b9150826002028217905092915050565b620004d1826200027b565b67ffffffffffffffff811115620004ed57620004ec62000092565b5b620004f98254620002b5565b620005068282856200042b565b600060209050601f8311600181146200053e576000841562000529578287015190505b620005358582620004a8565b865550620005a5565b601f1984166200054e86620002ea565b60005b82811015620005785784890151825560018201915060208501945060208101905062000551565b8683101562000598578489015162000594601f89168262000488565b8355505b6001600288020188555050505b505050505050565b61197880620005bd6000396000f3fe608060405234801561001057600080fd5b50600436106100cf5760003560e01c80636352211e1161008c578063a9059cbb11610066578063a9059cbb14610210578063c87b56dd1461022c578063d3fc98641461025c578063e985e9c514610278576100cf565b80636352211e1461019257806370a08231146101c257806395d89b41146101f2576100cf565b806306fdde03146100d4578063081812fc146100f2578063095ea7b31461012257806323b872dd1461013e578063367605ca1461015a57806342966c6814610176575b600080fd5b6100dc6102a8565b6040516100e99190610fe3565b60405180910390f35b61010c6004803603810190610107919061104f565b61033a565b60405161011991906110bd565b60405180910390f35b61013c60048036038101906101379190611104565b610377565b005b61015860048036038101906101539190611144565b6104dc565b005b610174600480360381019061016f91906111cf565b6107b8565b005b610190600480360381019061018b919061104f565b61088c565b005b6101ac60048036038101906101a7919061104f565b6109c7565b6040516101b991906110bd565b60405180910390f35b6101dc60048036038101906101d79190611222565b610a04565b6040516101e9919061125e565b60405180910390f35b6101fa610a4d565b6040516102079190610fe3565b60405180910390f35b61022a60048036038101906102259190611104565b610adf565b005b6102466004803603810190610241919061104f565b610cf5565b6040516102539190610fe3565b60405180910390f35b610276600480360381019061027191906113ae565b610d9a565b005b610292600480360381019061028d919061141d565b610ebf565b60405161029f919061146c565b60405180910390f35b6060600080546102b7906114b6565b80601f01602080910402602001604051908101604052809291908181526020018280546102e3906114b6565b80156103305780601f1061030557610100808354040283529160200191610330565b820191906000526020600020905b81548152906001019060200180831161031357829003601f168201915b5050505050905090565b60006005600083815260200190815260200160002060009054906101000a900473ffffffffffffffffffffffffffffffffffffffff169050919050565b3373ffffffffffffffffffffffffffffffffffffffff166003600083815260200190815260200160002060009054906101000a900473ffffffffffffffffffffffffffffffffffffffff1673ffffffffffffffffffffffffffffffffffffffff1614610418576040517f08c379a000000000000000000000000000000000000000000000000000000000815260040161040f90611533565b60405180910390fd5b816005600083815260200190815260200160002060006101000a81548173ffffffffffffffffffffffffffffffffffffffff021916908373ffffffffffffffffffffffffffffffffffffffff1602179055507f8c5be1e5ebec7d5bd14f71427d1e84f3dd0314c0f7b2291e5b200ac8c7c3b9256003600083815260200190815260200160002060009054906101000a900473ffffffffffffffffffffffffffffffffffffffff1683836040516104d093929190611553565b60405180910390a15050565b60006003600083815260200190815260200160002060009054906101000a900473ffffffffffffffffffffffffffffffffffffffff1690508073ffffffffffffffffffffffffffffffffffffffff163373ffffffffffffffffffffffffffffffffffffffff1614610582576040517f08c379a0000000000000000000000000000000000000000000000000000000008152600401610579906115d6565b60405180910390fd5b61058c8133610ebf565b6105cb576040517f08c379a00000000000000000000000000000000000000000000000000000000081526004016105c2906115d6565b60405180910390fd5b3373ffffffffffffffffffffffffffffffffffffffff166105eb8361033a565b73ffffffffffffffffffffffffffffffffffffffff1614610641576040517f08c379a0000000000000000000000000000000000000000000000000000000008152600401610638906115d6565b60405180910390fd5b6005600083815260200190815260200160002060006101000a81549073ffffffffffffffffffffffffffffffffffffffff02191690556001600460008673ffffffffffffffffffffffffffffffffffffffff1673ffffffffffffffffffffffffffffffffffffffff16815260200190815260200160002060008282546106c79190611625565b925050819055506001600460008573ffffffffffffffffffffffffffffffffffffffff1673ffffffffffffffffffffffffffffffffffffffff168152602001908152602001600020600082825461071e9190611659565b92505081905550826003600084815260200190815260200160002060006101000a81548173ffffffffffffffffffffffffffffffffffffffff021916908373ffffffffffffffffffffffffffffffffffffffff1602179055507fddf252ad1be2c89b69c2b068fc378daa952ba7f163c4a11628f55a4df523b3ef8484846040516107aa93929190611553565b60405180910390a150505050565b80600660008573ffffffffffffffffffffffffffffffffffffffff1673ffffffffffffffffffffffffffffffffffffffff16815260200190815260200160002060008473ffffffffffffffffffffffffffffffffffffffff1673ffffffffffffffffffffffffffffffffffffffff16815260200190815260200160002060006101000a81548160ff0219169083151502179055507f4c4ac771c52d55e7d4d24dbb46cd9f557573619fbf8da2d61a9b97310c47c9f883838360405161087f9392919061168d565b60405180910390a1505050565b60006003600083815260200190815260200160002060009054906101000a900473ffffffffffffffffffffffffffffffffffffffff1690506005600083815260200190815260200160002060006101000a81549073ffffffffffffffffffffffffffffffffffffffff02191690556001600460008373ffffffffffffffffffffffffffffffffffffffff1673ffffffffffffffffffffffffffffffffffffffff168152602001908152602001600020600082825461094a9190611625565b925050819055506003600083815260200190815260200160002060006101000a81549073ffffffffffffffffffffffffffffffffffffffff02191690557fddf252ad1be2c89b69c2b068fc378daa952ba7f163c4a11628f55a4df523b3ef816000846040516109bb93929190611553565b60405180910390a15050565b60006003600083815260200190815260200160002060009054906101000a900473ffffffffffffffffffffffffffffffffffffffff169050919050565b6000600460008373ffffffffffffffffffffffffffffffffffffffff1673ffffffffffffffffffffffffffffffffffffffff168152602001908152602001600020549050919050565b606060018054610a5c906114b6565b80601f0160208091040260200160405190810160405280929190818152602001828054610a88906114b6565b8015610ad55780601f10610aaa57610100808354040283529160200191610ad5565b820191906000526020600020905b815481529060010190602001808311610ab857829003601f168201915b5050505050905090565b3373ffffffffffffffffffffffffffffffffffffffff166003600083815260200190815260200160002060009054906101000a900473ffffffffffffffffffffffffffffffffffffffff1673ffffffffffffffffffffffffffffffffffffffff1614610b80576040517f08c379a0000000000000000000000000000000000000000000000000000000008152600401610b7790611533565b60405180910390fd5b6005600082815260200190815260200160002060006101000a81549073ffffffffffffffffffffffffffffffffffffffff02191690556001600460003373ffffffffffffffffffffffffffffffffffffffff1673ffffffffffffffffffffffffffffffffffffffff1681526020019081526020016000206000828254610c069190611625565b925050819055506001600460008473ffffffffffffffffffffffffffffffffffffffff1673ffffffffffffffffffffffffffffffffffffffff1681526020019081526020016000206000828254610c5d9190611659565b92505081905550816003600083815260200190815260200160002060006101000a81548173ffffffffffffffffffffffffffffffffffffffff021916908373ffffffffffffffffffffffffffffffffffffffff1602179055507fddf252ad1be2c89b69c2b068fc378daa952ba7f163c4a11628f55a4df523b3ef338383604051610ce993929190611553565b60405180910390a15050565b6060600260008381526020019081526020016000208054610d15906114b6565b80601f0160208091040260200160405190810160405280929190818152602001828054610d41906114b6565b8015610d8e5780601f10610d6357610100808354040283529160200191610d8e565b820191906000526020600020905b815481529060010190602001808311610d7157829003601f168201915b50505050509050919050565b6001600460008573ffffffffffffffffffffffffffffffffffffffff1673ffffffffffffffffffffffffffffffffffffffff1681526020019081526020016000206000828254610dea9190611659565b92505081905550826003600084815260200190815260200160002060006101000a81548173ffffffffffffffffffffffffffffffffffffffff021916908373ffffffffffffffffffffffffffffffffffffffff16021790555080600260008481526020019081526020016000209081610e639190611870565b50600160076000828254610e779190611659565b925050819055507fddf252ad1be2c89b69c2b068fc378daa952ba7f163c4a11628f55a4df523b3ef60008484604051610eb293929190611553565b60405180910390a1505050565b6000600660008473ffffffffffffffffffffffffffffffffffffffff1673ffffffffffffffffffffffffffffffffffffffff16815260200190815260200160002060008373ffffffffffffffffffffffffffffffffffffffff1673ffffffffffffffffffffffffffffffffffffffff16815260200190815260200160002060009054906101000a900460ff16905092915050565b600081519050919050565b600082825260208201905092915050565b60005b83811015610f8d578082015181840152602081019050610f72565b60008484015250505050565b6000601f19601f8301169050919050565b6000610fb582610f53565b610fbf8185610f5e565b9350610fcf818560208601610f6f565b610fd881610f99565b840191505092915050565b60006020820190508181036000830152610ffd8184610faa565b905092915050565b6000604051905090565b600080fd5b600080fd5b6000819050919050565b61102c81611019565b811461103757600080fd5b50565b60008135905061104981611023565b92915050565b6000602082840312156110655761106461100f565b5b60006110738482850161103a565b91505092915050565b600073ffffffffffffffffffffffffffffffffffffffff82169050919050565b60006110a78261107c565b9050919050565b6110b78161109c565b82525050565b60006020820190506110d260008301846110ae565b92915050565b6110e18161109c565b81146110ec57600080fd5b50565b6000813590506110fe816110d8565b92915050565b6000806040838503121561111b5761111a61100f565b5b6000611129858286016110ef565b925050602061113a8582860161103a565b9150509250929050565b60008060006060848603121561115d5761115c61100f565b5b600061116b868287016110ef565b935050602061117c868287016110ef565b925050604061118d8682870161103a565b9150509250925092565b60008115159050919050565b6111ac81611197565b81146111b757600080fd5b50565b6000813590506111c9816111a3565b92915050565b6000806000606084860312156111e8576111e761100f565b5b60006111f6868287016110ef565b9350506020611207868287016110ef565b9250506040611218868287016111ba565b9150509250925092565b6000602082840312156112385761123761100f565b5b6000611246848285016110ef565b91505092915050565b61125881611019565b82525050565b6000602082019050611273600083018461124f565b92915050565b600080fd5b600080fd5b7f4e487b7100000000000000000000000000000000000000000000000000000000600052604160045260246000fd5b6112bb82610f99565b810181811067ffffffffffffffff821117156112da576112d9611283565b5b80604052505050565b60006112ed611005565b90506112f982826112b2565b919050565b600067ffffffffffffffff82111561131957611318611283565b5b61132282610f99565b9050602081019050919050565b82818337600083830152505050565b600061135161134c846112fe565b6112e3565b90508281526020810184848401111561136d5761136c61127e565b5b61137884828561132f565b509392505050565b600082601f83011261139557611394611279565b5b81356113a584826020860161133e565b91505092915050565b6000806000606084860312156113c7576113c661100f565b5b60006113d5868287016110ef565b93505060206113e68682870161103a565b925050604084013567ffffffffffffffff81111561140757611406611014565b5b61141386828701611380565b9150509250925092565b600080604083850312156114345761143361100f565b5b6000611442858286016110ef565b9250506020611453858286016110ef565b9150509250929050565b61146681611197565b82525050565b6000602082019050611481600083018461145d565b92915050565b7f4e487b7100000000000000000000000000000000000000000000000000000000600052602260045260246000fd5b600060028204905060018216806114ce57607f821691505b6020821081036114e1576114e0611487565b5b50919050565b7f496e636f7272656374204f776e65720000000000000000000000000000000000600082015250565b600061151d600f83610f5e565b9150611528826114e7565b602082019050919050565b6000602082019050818103600083015261154c81611510565b9050919050565b600060608201905061156860008301866110ae565b61157560208301856110ae565b611582604083018461124f565b949350505050565b7f4e6f7420417070726f7665640000000000000000000000000000000000000000600082015250565b60006115c0600c83610f5e565b91506115cb8261158a565b602082019050919050565b600060208201905081810360008301526115ef816115b3565b9050919050565b7f4e487b7100000000000000000000000000000000000000000000000000000000600052601160045260246000fd5b600061163082611019565b915061163b83611019565b9250828203905081811115611653576116526115f6565b5b92915050565b600061166482611019565b915061166f83611019565b9250828201905080821115611687576116866115f6565b5b92915050565b60006060820190506116a260008301866110ae565b6116af60208301856110ae565b6116bc604083018461145d565b949350505050565b60008190508160005260206000209050919050565b60006020601f8301049050919050565b600082821b905092915050565b6000600883026117267fffffffffffffffffffffffffffffffffffffffffffffffffffffffffffffffff826116e9565b61173086836116e9565b95508019841693508086168417925050509392505050565b6000819050919050565b600061176d61176861176384611019565b611748565b611019565b9050919050565b6000819050919050565b61178783611752565b61179b61179382611774565b8484546116f6565b825550505050565b600090565b6117b06117a3565b6117bb81848461177e565b505050565b5b818110156117df576117d46000826117a8565b6001810190506117c1565b5050565b601f821115611824576117f5816116c4565b6117fe846116d9565b8101602085101561180d578190505b611821611819856116d9565b8301826117c0565b50505b505050565b600082821c905092915050565b600061184760001984600802611829565b1980831691505092915050565b60006118608383611836565b9150826002028217905092915050565b61187982610f53565b67ffffffffffffffff81111561189257611891611283565b5b61189c82546114b6565b6118a78282856117e3565b600060209050601f8311600181146118da57600084156118c8578287015190505b6118d28582611854565b86555061193a565b601f1984166118e8866116c4565b60005b82811015611910578489015182556001820191506020850194506020810190506118eb565b8683101561192d5784890151611929601f891682611836565b8355505b6001600288020188555050505b50505050505056fea26469706673582212202a3a1c85a4ef113c1546f5c69d1f07d8f1c42127901e337103f40135ed6623ca64736f6c63430008120033",
  "linkReferences": {},
  "deployedLinkReferences": {}
}